:020000020000FC
:100000000C9490050C942A000C942A000C942A005D
:100010000C942A000C942A000C942A000C942A00B8
:100020000C942A000C942A000C94C5010C942A000C
:100030000C942A000C9468030C942A000C942A0057
:100040000C942A000C942A000C942A000C942A0088
:100050000C942A0018952E650D0017310E001F090B
:100060000F0001EE0F007FE0100067E1110097F133
:100070001200F61114007B4315002B8716001ADEC0
:1000800017006D4919005BCA1A0004040404040433
:100090000404040404040405050505050505050517
:1000A00005050505050606060606060606060607F4
:1000B0000707070707070708080808080909090AC2
:1000C0000A0B0B0C0C0D0E0E0F1010111213131443
:1000D00015161718191A1C1D1E1F21222426272940
:1000E0002B2D2F313335383A3D3F4245484C4F5246
:1000F000565A5E62676B70757A7F858B91989EA564
:10010000ADB5BDC5CED7E0EAF5FF19191919191912
:100110001919191919191919191A1A1A1A1A1A1A48
:100120001A1A1A1B1B1B1B1B1B1B1C1C1C1C1C1D1B
:100130001D1D1D1D1D1D1E1E1E1E1F1F20202021DA
:100140002122222323242525262626272829292A59
:100150002B2C2D2E2F2F313233343637383A3B3D6E
:100160003F41424446484B4C4F515456595D5F62A3
:1001700066696D7075797D82868B90959BA1A7AD20
:10018000B4BBC2CAD2DAE2EBF5FFF8C67DBBABB0B6
:1001900079A6DE9CD193498B4083AD7B8A74D06D68
:1001A0007A678261E15B94569551E04C7048424415
:1001B00052409C3C1C39D135B632C92F072D6E2ACE
:1001C000FB27AC2580237321851FB41DFD1B5F1AFF
:1001D000DA186B171116CB14981376126611651086
:1001E000720F8E0EB70DED0C2E0C7A0BD00A310A61
:1001F0009A090C098708090892072207B9065506CB
:10020000F805A0054D05FE04B5046F042E04F003A7
:10021000B6037F034B031B03ED02C2029902720275
:100220004E022C020C02EE01D101B7019D018501A5
:100230006F015A0146013301210111010101F20050
:10024000E400D700CB00BF00B400A900A0009600D6
:100250008E0086007E0077007000690063005E00FB
:10026000580053004E004A00450041003E003A004D
:100270003700340031002E002B0029002600240016
:10028000220020001E001C001B00000000010101D4
:100290000101020202020303030303040404040530
:1002A00005050506060606070707070808080809E2
:1002B0000909090A0A0A0B0B0B0B0C0C0C0D0D0D8E
:1002C0000E0E0E0F0F0F1010101111121212131329
:1002D00014141415151616171717181819191A1AB1
:1002E0001B1B1C1C1D1D1E1E1F1F20212122222323
:1002F000232425252627272829292A2B2B2C2D2D79
:100300002E2F303031323333343536373838393AAE
:100310003B3C3D3E3F3F40414243444546474849C0
:100320004A4B4C4D4E5051525354555657595A5BA7
:100330005C5D5F60616264656668696A6C6D6E7061
:100340007173747677787A7B7D7E808283858688E8
:100350008A8B8D8E9092949597999A9C9EA0A2A438
:10036000A5A7A9ABADAFB1B3B5B7B9BBBDBFC1C34D
:10037000C5C7C9CBCED0D2D4D6D9DBDDE0E2E4E725
:10038000E9EBEEF0F3F5F7FAFCFF0F930FB70F93DD
:100390001F932F933F934F935F936F937F93EF93AD
:1003A000FF930F921F92C394C0FC04C0C098E091C9
:1003B000E20003C09398E091E800EFB95091EE009D
:1003C00050FD0C945E02142D5091790054FF08C02A
:1003D00052FF03C07091D9000CC07091290109C06F
:1003E0006091D600E2ECF5E1E10FF61FC895102D03
:1003F00020C06091D600E2ECF5E1E10FF61FC89550
:10040000272F210F102DE2ECF5E1E20FF61FC89522
:10041000222710192809170F281D14F410E020E0D6
:10042000222309F01FEF05C0171710F010E001C0DC
:100430001FEF1058C0FC03C0E091E30002C0E09140
:10044000E700EFB9072D7091790074FF03C0709138
:10045000290109C06091D700E2ECF5E1E00FF61F39
:10046000C895002D20C06091D700E2ECF5E1E00FC7
:10047000F61FC895272F200F002DE2ECF5E1E20FC3
:10048000F61FC895222700192809070F281D14F404
:1004900000E020E0222309F00FEF05C0071710F05D
:1004A00000E001C00FEF005867E81603F00167E7AE
:1004B0000603E00DF11D8F010C94B402042D609130
:1004C000D80018E05091790052FD610F54FF610F80
:1004D000660F1127000F181DE2ECF1E2E00FF11F8B
:1004E000F60F25913491072D1127000F181DE2EC0E
:1004F000F1E2E00FF11FF60F0591149100000000EA
:10050000000000000000000000000000C0FC03C06C
:10051000E091E30002C0E091E700EFB9159507957F
:1005200035952795020F131F000000000000000002
:1005300000000000000000000000000000000000BB
:1005400000000000000000000000000000000000AB
:10055000000000000000000000000000000000009B
:100560000000000000000000C0FC02C0C09A01C0F2
:10057000939AE0917900E1FF1AC0E42DE7FDEFEFD7
:10058000E7FFE0E0E7FF11C0F091DA00EF1769F054
:10059000F091DB00F7FD05C0969AFFEFF093DB00CA
:1005A00004C09698F0E0F093DB00E093DA00159534
:1005B000079509191A0913F401E010E861E0492DC3
:1005C0005A2D3091E5002091E400421B530B13F4A7
:1005D00041E050E856039001469F210D381D001C54
:1005E00008F423958894220F331F8894220F331F19
:1005F0009901020F131F13F40FEF1FE740918A00B8
:1006000014039001049F210D381D001C08F423954C
:10061000920EA31E23F42FEF3FE7922EA32E3A2D26
:10062000292DE091E400F091E5002E1B3F0B13F41F
:1006300021E030E840918A0034039001249F210D8D
:10064000381DE20FF31F13F4EFEFFFE7E093E40030
:10065000F093E5000E2F1F2F20918B002F3F29F0E4
:100660001203F001029FE10DF81D13E09398F0587A
:100670000F2FEE0F001F111FEE0F001F111FEE0FA7
:10068000001F111FEE0F001F111F1FB9102FE0EDEB
:10069000F0E00191200E0191301E0191401E019168
:1006A000500E0191601E0191701E1FB91F900F9096
:1006B000FF91EF917F916F915F914F913F912F91BA
:1006C0001F919498939A949A0F910FBF0F91189538
:1006D0000F930FB70F931F930CB15798003F20F063
:1006E00000E000936000F0C00023F2F4102F107FB0
:1006F000103851F0103941F0103B31F0103E21F02C
:1007000010E010936000E0C0109360000F7003953C
:100710000093610010917B00112329F0101719F04C
:1007200010E010936000D0C0109160001123D9F345
:10073000103819F0113839F00AC013951093600081
:1007400000936200C1C01A951093600010C0103968
:1007500019F0113939F03FC01395109360000093E0
:100760006200B2C01A9510936000002309F5009151
:10077000620010916600011719F41FEF10936600D4
:1007800010916400011759F4109166001F3F41F069
:1007900010936400109365001FEF1093660094C0DF
:1007A0001FEF1093640010E010939F00919A8CC08B
:1007B0000093630010916400109366001091620032
:1007C000109364001093650011E010939F00109344
:1007D000A000919879C0103B19F0113B39F05BC033
:1007E000139510936000009362006EC01A951093E9
:1007F000600010916200AF93BF93103320F010346B
:1008000018F01035D0F03EC0AFEEB0E0A10FB81D2B
:10081000000F0C9310531770AFE8B0E0A10FB81D94
:100820000C91A7E9B0E0A10FB81D0C93ADE6B0E0C4
:10083000A10FB81D10E01C932BC010541770A0918D
:10084000790006FB103011F4A0F919C0113011F431
:10085000A1F915C0123011F4A2F911C0133011F42E
:10086000A3F90DC0143011F4A4F909C0153011F426
:10087000A5F905C0163011F4A6F901C0A7F9A09397
:10088000790006C0AFEEB0E0A10FB81D000F0C93C9
:10089000BF91AF9119C0103E19F0113E39F014C04C
:1008A000139510936000009362000EC01A95109388
:1008B000600010916200110F110F001F005810937B
:1008C00067000093680000C01F910F910FBF0F9148
:1008D000579A189527B9369A0895349BFECF349AC3
:1008E00004B115B11695079516950795089522231D
:1008F00031F02F93159507952A95E1F72F910895DB
:10090000442341F04F9336952795179507954A95BF
:10091000D1F74F910895442341F04F93000F111FD9
:10092000221F331F4A95D1F74F910895379FE00159
:10093000279FA001179FD001079F902DA10DB41FE5
:10094000C51FD81D369FA001169F900DA11DB41F75
:10095000C51FD81D269FA001069F802D910DA41FA5
:10096000B51FC81DD81D0A2F1B2F2C2F3D2F0895F2
:10097000EE0FF0E0BB96EE0FFF1F0591159125914C
:10098000359108956F937F93E72FF2DF802F912F9A
:10099000A22FB32FE72FE395EBDF081B190B2A0BD0
:1009A0003B0B8F939F93AF93BF93762F60E04F9352
:1009B000BDDF4F91BF91AF919F918F91080F191F8C
:1009C0002A1F3B1F7F916F91089540E002C07C5029
:1009D00043957C30E0F70895EE0FFF1FE00FF81D00
:1009E00004910895E00FF81DEE0FFF1F259134913B
:1009F00008950695E5ECF0E0F5DF0027112708954E
:100A000060E0702F703718F0703938F00CC000E0DB
:100A100010E221E0E0E0F0E00BC008E011E220E0AD
:100A2000ECE8FFE605C007EB1DE121E0E7E6F2EEAA
:100A300030E07CDF0E0F1F1F0895E199FECFBFB697
:100A4000F8942FBB1EBB0DBBE29AE19ABFBE08957E
:100A5000E199FECFBFB6F8942FBB1EBBE09A0DB351
:100A6000BFBE089500937B0023E01FEFE6DF03E0A5
:100A70000093ED000FEF0093EB0000E30093EC0018
:100A80000895002700936D0000936E0000936F009F
:100A90000093700000937100009372000093730044
:100AA0000093740000918F000093970000919000D4
:100AB000009398000091910000939900009192009A
:100AC00000939A000091930000939B000091940082
:100AD00000939C000091950000939D00009196006A
:100AE00000939E000895CDE6D0E0C40FD81D288164
:100AF00020FD14C0302FC7E9D0E0C40FD81D1881E5
:100B0000311B0AF43195323038F02160CDE6D0E067
:100B1000C40FD81D288302C010E0089511E0089585
:100B2000F89400913400006804BF04BF0FE518E09A
:100B30000DBF1EBF88242224332444245524662458
:100B400077249924AA2422273327EE27FF2705E0BC
:100B50000093CE0000E00093ED000093EE000093C0
:100B600079000093750000937B000093DD000093F3
:100B70009F000093A00000938B000093A8000093B7
:100B8000A9000093AA0000938D00009386000093B3
:100B9000870000938800009367000093680000932B
:100BA000F00000936B000093E60002E000938900E0
:100BB0000FEF00936C000093DE0000938A00009317
:100BC0006400009366000EE514EB26E70093BD0079
:100BD0001093BE002093BF0000E010E020E00093DF
:100BE000C0001093C1002093C2000FEF1FEF2FEF42
:100BF0000093C3001093C4002093C50024E1009328
:100C0000C6001093C7002093C80024E60093C900D3
:100C10001093CA002093CB0001E000936D00009375
:100C20006E0000936F0000937000009371000093BA
:100C300072000093730008E00093690008E10093DC
:100C4000AF0008E70093270100E8009329010FEFA8
:100C500000937A0000EB0093E80000E00093E700C7
:100C600000E00093B1000093B6000093A70000934A
:100C70007C0000937D0000936A00009320010093A4
:100C80002C0100932B0100932A0104E60093280114
:100C900000E00BBB00E00ABB0FEF08BB01EB07BB9A
:100CA00000E50DB901E00EB900E004BB0FEF05BB94
:100CB0000EEF01BB00E002BB919A01E30CBF0AE01A
:100CC00003BF04E00EBD09E103BD01E605BD00E080
:100CD00000BD0FE109B900E90AB906E806B902E06A
:100CE00009BF789420918D00F5DD23E01FEFB0DE81
:100CF000609169006395061708F000E000937B009F
:100D00000CB51DB50093A1001093A20003B300FD24
:100D10000CC001E00093EE0003E00093ED000FEF44
:100D20000093EB0000E30093EC000CB51DB520919F
:100D3000A1003091A200021B130B0157124008F4CE
:100D40004DC003B31091750020917A0000FB20F98B
:100D500003FB14F904FB13F905FB12F906FB11F967
:100D600007FB10F91093750020937A0030916C0006
:100D700030FF07C01093770010937900332730932A
:100D80006C000091750010917700011739F12091E6
:100D90007900102710FF02C000FB20F911FF02C0EC
:100DA00001FB21F912FF02C002FB22F913FF02C06E
:100DB00003FB23F914FF02C004FB24F915FF02C052
:100DC00005FB25F916FF02C006FB26F917FF02C036
:100DD00007FB27F920937900009377000091ED003D
:100DE000033079F050917A0050FD0BC001E0009380
:100DF000ED000FEF0093EB0000E60093EC000027FE
:100E000040DE0091ED000023A9F01091EB0020914D
:100E1000EC00101B2809222349F01093EB002093CB
:100E2000EC0021FF919821FD919A04C0919A00E075
:100E30000093ED0052DD20918D0020938E00CFE8CD
:100E4000D0E0C20FD81D08832395277020938D0012
:100E500041DD40918E00403081F445DE1123B1F137
:100E600000936A0000931F010091ED00002371F1CF
:100E7000033061F108E0F6DDBCC0413071F433DECF
:100E8000112321F1009320010091ED000023F1F0E6
:100E90000330E1F007E0E6DDACC0423009F523DEC7
:100EA000112351F0009321010091ED00002321F066
:100EB000033011F006E0D6DD00912101013838F051
:100EC0009FDD105800937C0010937D0092C00D3779
:100ED000B8F300E010E000937C0010937D0089C01F
:100EE0004330E1F400DE112351F000932201009120
:100EF000ED00002321F0033011F005E0B3DD009197
:100F000022011091EE0010FF00932C01069506952A
:100F10000695069506950093D8006BC0443089F479
:100F2000E2DD112369F0003009F401E000932301B0
:100F30000091ED00002321F0033011F004E092DD78
:100F400058C0453071F4CFDD112351F000932401D6
:100F50000091ED00002321F0033011F003E082DD69
:100F600048C0463011F5BFDD112351F00093250133
:100F70000091ED00002321F0033011F002E072DD5A
:100F8000009125013091790008C03FEF3093840033
:100F900030938300009385002CC030E030938400B0
:100FA000009383000093850024C0473011F59BDD3A
:100FB000112351F0009326010091ED00002321F050
:100FC000033011F001E04EDD0091260130917900EF
:100FD00030FF08C03FEF3093800030937F000093D4
:100FE000810007C030E03093800000937F000093C1
:100FF000810000916300000F10912801019F109261
:10100000AF000091630010912301003528F000919A
:101010002701100F08F41FEF1093E1006CB57DB5A8
:10102000262F372F0091A3001091A400601B710B95
:101030002093A3003093A4006093A5007093A600B2
:10104000009120011091790013FF03C00C3D08F0BE
:101050000CED0095CEDC6091A5007091A60066DCD9
:101060003091B2004091B3005091B4005058F0E07C
:10107000E091B100EE23A1F46091C3007091C4002F
:101080008091C500300F411F521F20F036174707CF
:101090005807C8F0362F472F582FE1E0F1E013C072
:1010A0006091C0007091C1008091C200301B410B63
:1010B000520B20F063177407850728F0362F472F4F
:1010C000582FE0E0F1E0E093B10050583093B200C7
:1010D0004093B3005093B40000E010E020E0E091B2
:1010E0007900E5FF09C0FF23B1F00091BD00109128
:1010F000BE002091BF002F770093C0001093C10065
:101100002093C2000095109520950093C300109382
:10111000C4002093C5000091790005FF05C0FF239E
:1011200029F05091BF0000C05093B50000911F01FD
:101130001091F000011718F4012F0091F0000093B6
:101140006A0004EB56DC6091A5007091A600EEDB0E
:101150003091B7004091B8005091B9005058F0E07C
:10116000E091B600EE23A1F46091C9007091CA002D
:101170008091CB00300F411F521F20F036174707D8
:101180005807C8F0362F472F582FE1E0F1E013C081
:101190006091C6007091C7008091C800301B410B60
:1011A000520B20F063177407850728F0362F472F5E
:1011B000582FE0E0F1E0E093B60050583093B700CC
:1011C0004093B8005093B90050585093D9001091F3
:1011D000A70000912B01113069F000917F001230BF
:1011E00049F000918100143029F0609180001330A3
:1011F00039F13AC0FEDB6091A5007091A60096DB44
:101200003091A8004091A9005091AA006091A700D8
:101210006430D1F0623049F0300F411F521FF0F4BA
:101220003FEF4FEF5FEF02E017C0301B410B520B57
:1012300078F060918000651788F003E00093A700C4
:1012400033274427562F0AC0301B410B520B30F472
:1012500030E040E050E000E00093A7003093A800A9
:101260004093A9005093AA001091AB0000912A016D
:10127000113069F000918300123049F0009185002F
:10128000143029F060918400133039F13CC0B1DB97
:101290006091A5007091A60049DB3091AC004091AF
:1012A000AD005091AE006091AB006430D1F062307F
:1012B00049F0300F411F521F00F53FEF4FEF5FEF36
:1012C00002E019C0301B410B520B78F06091840092
:1012D000651798F003E00093AB0033274427562F9F
:1012E0000CC0301B410B520B40F430E040E050E0AA
:1012F00000E00093E6000093AB003093AC00409315
:10130000AD005093AE0000919F00002371F404E003
:101310001091A700112361F10093A7001091AB0079
:10132000112331F10093AB0023C00091A0000023F2
:10133000F9F000E00093A00000918900002319F06B
:101340000A950093890001E00093A7000093AB0089
:101350000091790006FD0CC00FEF1FEF2FE70093FF
:10136000B2001093B3002093B40001E00093B100E9
:1013700090E060E0709165007F3F11F4ABC07C505D
:101380007136E8F701C0745F7432E8F37C509091D5
:101390008600A0918700B091880000918900002309
:1013A00081F500912C0125DB6F937F93622F732FC2
:1013B00000E010E02091A5003091A60043E0A0DA03
:1013C000B5DA7F916F91302F412F522F9091860087
:1013D000A0918700B09188006A177B0738F4931BAF
:1013E000A40BB50B6A177B0750F006C0930FA41F20
:1013F000B51F6A177B0718F490E0A62FB72F6A2F46
:101400007B2F9093860060938700709388000091F3
:1014100067001091680027E06ADA202F312F020F51
:10142000131F020F131F600F711F70938C00009128
:10143000790003FD1FC00091B50010916A00209152
:101440002001203009F001C010E0212F169520382E
:1014500010F01058120F0103800124E048DA600FE9
:10146000711F77231AF460E070E004C07D3610F03D
:1014700060E07CE66F937F93972F9D5008F4992747
:101480009695969596959093D6009FDA7BDA43DAF7
:101490001093D0002093D1003093D2007F916F91B0
:1014A00000917C0010917D0024E021DA600F711F13
:1014B000972F9D5008F49927969596959695909319
:1014C000D70083DA5FDA27DA1093D3002093D400B1
:1014D0003093D500E0E0F0E00091790003FF0C9438
:1014E000830A0091B50010916A001A3B08F01AEBCC
:1014F00020912001203009F001C010E00103E12D0E
:10150000F0E0111CFF0B0091AE001091AF00019FA5
:101510008001001FE11FF81D2091230111272E0FCC
:101520001F1F112312F420E002C009F02FEF2093B7
:10153000E1000091240111270E0F1F1F112312F447
:1015400000E002C009F00FEF0695102FE5E4F0E08F
:1015500043DA00938A00012FE5E8F0E03DDA03BDAD
:101560000091AA0000938B001BE0000F111F000FD9
:10157000111F000F111F000F111F1093E80000939F
:10158000E700E1E010E00091E1000E0F181D10935C
:10159000E2000093E3000091BD001091BE00209195
:1015A000BF0027FB30F922FB40F934273695001F96
:1015B000111F221F0093BD001093BE002093BF0097
:1015C000B4CB801211151616161819191A1B1C1DEA
:1015D0001E1F2020212223242526272728292A2BC5
:1015E0002C2D2D2E2F3031323334343536373839D7
:1015F0003A3A3B3C3D3E3F404141424344454647E9
:101600004748494A4B4C4D4D4E4F505152535354FD
:101610005556575859595A5B5C5D5E5F6060616210
:1016200063646566666768696A6B6C6D6D6E6F7022
:10163000717273737475767778797A7A7B7C7D7E34
:101640007F808080818283848586868788898A8B53
:101650008C8D8D8E8F909192939394959697989967
:101660009A9A9B9C9D9E9FA0A0A1A2A3A4A5A6A779
:10167000A7A8A9AAABACADADAEAFB0B1B2B3B3B48D
:10168000B5B6B7B8B9B9BABBBCBDBEBFBFC0C1C2A1
:10169000C3C4C5C6C6C7C8C9CACBCCCCCDCECFD0B3
:1016A000D1D2D3D3D4D5D6D7D8D9D9DADBDCDDDEC5
:1016B000DFE0E0E1E2E3E4E5E6E7E7E8EAEAEAEBD7
:1016C000EFEE801110151715161919191A1C1C1D8B
:1016D0001E1F1F20222223242526262728292A2BC5
:1016E0002C2C2D2E2F3031323333343536373839D8
:1016F000393A3B3C3D3E3F404041424344454646EB
:101700004748494A4B4C4C4D4E4F505152535354FD
:101710005556575859595A5B5C5D5E5F606061620F
:1017200063646566666768696A6B6C6D6D6E6F7021
:10173000717273737475767778797A7A7B7C7D7E33
:101740007F808080818283848586868788898A8B52
:101750008C8D8D8E8F909192939394959697989966
:101760009A9A9B9C9D9E9FA0A0A1A2A3A4A5A6A778
:10177000A7A8A9AAABACADADAEAFB0B1B2B3B4B48B
:10178000B5B6B7B8B9BABABBBCBDBEBFC0C0C1C29E
:10179000C3C4C5C6C7C7C8C9CACBCCCDCDCECFD0B0
:1017A000D1D2D3D4D4D5D6D7D8D9DADADBDCDDDEC2
:1017B000DEE0E1E1E2E3E4E4E6E7E7E7EAEBE9EBD8
:1017C000F0EF801C161414141516181A1B1C1D1D7E
:1017D0001E1E1F2021222324252627272829292AC7
:1017E0002B2C2D2E2F3031323233343536373839D9
:1017F0003A3A3B3C3D3E3E3F4041424344454646EB
:101800004748494A4B4C4D4D4E4F505152525354FC
:101810005556575859595A5B5C5D5E5F606161620D
:1018200063646565666768696A6B6C6D6D6E6F7021
:1018300071727374747576777879797A7B7C7D7E32
:101840007F808080818283848586878788898A8B50
:101850008C8C8D8E8F909192939394959697989966
:101860009A9B9B9C9D9E9F9FA0A1A2A3A4A5A6A777
:10187000A7A8A9AAABACADAEAEAFB0B1B2B3B3B48A
:10188000B5B6B7B8B9BABABBBCBDBEBFC0C1C2C29B
:10189000C3C4C5C6C6C7C8C9CACBCCCDCECECFD0AF
:1018A000D1D2D3D4D5D6D7D7D8D9D9DADBDCDDDEBF
:1018B000DFE0E1E2E2E3E3E4E5E6E8EAEBECECECCE
:1018C000EAE4800A0F1A15131919171A1C1A1C1E9C
:1018D0001D1E2120212323232526262829292A2CC1
:1018E0002C2C2E2E2F3031313334343537373839D4
:1018F0003A3A3C3C3D3E3F3F4142424344454647E5
:101900004748494A4B4C4D4D4E50505152535355F8
:1019100055565758595A5B5B5C5D5E5F606161620A
:1019200063646566666769696A6B6C6C6E6E6F701E
:10193000717273747475767778797A7A7B7C7D7E30
:101940007F7F8081818283848586868788898A8B50
:101950008C8C8D8E8F909192929494959697979966
:101960009A9A9B9C9D9E9F9FA0A1A2A3A4A5A5A679
:10197000A7A8A9AAABABADADAEAFB0B0B2B3B3B48C
:10198000B5B6B7B8B9B9BABBBCBDBEBEBFC1C1C29E
:10199000C3C4C4C6C6C7C8C9C9CBCCCCCDCFCFD0B1
:1019A000D1D2D2D4D4D4D6D7D7D8DADADBDDDDDDC4
:1019B000DFE0DFE2E3E2E4E6E4E6E9E7E7EDEBE6D9
:1019C000F1F680011B131519141C161C191C1D1C83
:1019D000201D211F222223252427262828292B2ABF
:1019E0002D2C2E2E303031323234343636373838D2
:1019F0003A3A3C3C3D3E3F404042424344454646E5
:101A000048484A4A4B4C4C4E4E50505152535454F5
:101A100056565758595A5A5C5C5D5E5F6060626208
:101A2000636465666668686A6A6B6C6D6E6E70701A
:101A3000717273747476767778797A7A7C7C7D7E2D
:101A40007F808080818283848486868788898A8A51
:101A50008C8C8D8E8F909092929394959696989868
:101A60009A9A9B9C9D9E9EA0A0A1A2A3A4A4A6A678
:101A7000A7A8A9AAAAACACADAEAFB0B0B2B2B4B48C
:101A8000B5B6B6B8B8BABABBBCBDBEBEC0C0C1C29E
:101A9000C3C4C4C6C6C8C8C9CACACCCCCECECFD0AF
:101AA000D0D2D2D4D3D6D5D7D8D8DAD9DCDBDDDEC4
:101AB000DEE1DFE3E0E4E3E4E7E4EAE4ECE7EBEDD6
:101AC000E5FF801A01181E11131D1B151A1F1B1A82
:101AD00020211E1F242321242725252929282A2CBB
:101AE0002C2B2E2F2E2F32323233353535383938D4
:101AF000393B3C3B3D3F3E3F4142424345454547E4
:101B00004848494B4B4B4D4E4E4F505151525455F6
:101B100055565858585A5B5B5C5E5E5E6061616208
:101B200064646466676768696A6B6B6D6E6E6F711B
:101B3000717173747475777777797A7A7B7D7D7D2F
:101B40007F80808081838383858686878989898B4E
:101B50008C8C8D8F8F8F9192929395959697989963
:101B6000999A9C9C9C9E9F9FA0A2A2A2A4A5A5A678
:101B7000A8A8A8AAABABACAEAFAFB0B1B2B2B3B588
:101B8000B5B5B7B8B8B9BBBBBBBDBEBEBFC1C2C19E
:101B9000C3C5C4C5C7C8C7C8CBCBCBCDCECECED1AD
:101BA000D2D1D2D5D4D4D6D8D7D7DBDBD9DCDFDDC0
:101BB000DCE1E2DFE0E6E5E1E6EBE5E3EDEFE2E8DC
:101BC000FFE680390B000D1D211B13131920211D69
:101BD0001A1B2024242120222628282626282B2DC3
:101BE0002C2B2B2E313231303134363635353739D6
:101BF0003B3B3A3B3C3F40403F40424445454545E6
:101C000047494A4A4A4B4D4E4F4F4F5052545454F5
:101C10005456585959595A5B5D5E5E5E5F61626306
:101C200063636466676868686A6C6C6D6D6E6F711B
:101C3000717272737576777777787A7B7C7C7C7E2D
:101C40007F80808081828484848586888989898A4E
:101C50008B8D8E8E8F8F9192939394949698989863
:101C6000999A9C9D9D9D9E9FA1A2A2A2A3A5A6A775
:101C7000A7A7A8AAACACACACAEB0B1B1B1B2B3B589
:101C8000B6B6B6B7B9BBBBBBBBBCBEC0C1C0C0C19A
:101C9000C4C5C6C5C5C7C9CBCBCACACCCFD0CFCEA9
:101CA000CFD2D5D5D4D3D5D8DADAD8D8DADEE0DFBA
:101CB000DCDCE0E5E6E3DFE0E7EDEDE5DFE3F3FFC5
:101CC000F5C78051290E02030C172024221D181578
:101CD000161A202426262421202124282B2C2C2BC4
:101CE0002A292A2C2F323333333231323437393BDD
:101CF0003B3A3A3A3B3D3F414242424242434547EA
:101D0000494A4A4A4A4A4B4C4E50515252515253F8
:101D1000545658595A59595A5B5C5E606161616109
:101D2000626364666869696969696A6C6E6F70711B
:101D30007171717274767778797979797A7C7D7F2F
:101D40008080808080818384868787878788898A4E
:101D50008C8E8F8F8F8F909192949697979797975D
:101D6000989A9C9D9E9F9F9F9FA0A2A4A5A6A7A76F
:101D7000A6A7A8AAACADAEAFAEAEAFB0B2B4B5B682
:101D8000B6B6B6B6B7B9BBBDBEBEBEBEBEBFC1C39A
:101D9000C5C6C6C6C5C5C7C9CCCECFCECDCDCDCEA6
:101DA000D1D4D6D7D6D5D4D4D5D8DCDFE0DFDCDAB1
:101DB000DADCE0E6EAEBE8E3DEDCE0E9F4FDFEF2A3
:101DC000D7AF8061442B180B0403060C141C222689
:101DD000282725221E1C1B1B1D2124282B2E2F2FBC
:101DE0002E2C2B2A2A2B2C2F3134363839393938DE
:101DF000373737383A3C3E404244444544444444F3
:101E0000444547484A4C4E4F505050505050515204
:101E1000535557595A5B5C5C5C5C5C5C5D5E606111
:101E200063656667686868686869696B6C6E70711D
:101E300073747474747475757677797A7C7E7F8028
:101E40008080808080808182848687898A8B8B8C49
:101E50008C8C8C8C8D8F909294959797989898985D
:101E600098999A9B9D9FA0A2A3A4A4A4A4A4A4A56E
:101E7000A6A7A9ABADAEAFB0B0B0B0B0B0B1B2B480
:101E8000B6B8B9BBBCBCBCBCBCBBBCBCBEC0C2C48D
:101E9000C6C8C9C9C9C8C7C7C7C8CACCCFD1D4D595
:101EA000D6D6D5D4D2D1D1D2D5D8DCDFE3E5E5E49E
:101EB000E2DEDBD9D8DADEE4ECF4FAFDFCF5E8D5B5
:101EC000BC9F806D5A49382A1E140C080505060966
:101ED0000D12181D22262A2C2E2F2E2D2C2A2927B2
:101EE000262524252627292C2F313437393B3C3D04
:101EF0003D3D3D3D3C3B3B3B3B3B3C3D3F4143450A
:101F000047494B4D4E4F4F505050504F4F4F4F50F1
:101F10005052535456585A5C5E5F6062626363630A
:101F2000636363636364646567686A6B6D6F717232
:101F300074757576767777777777777778797A7B30
:101F40007D7F808183858687888989898989898938
:101F50008A8A8B8B8C8E8F9193959698999B9C9C5B
:101F60009D9D9D9D9D9D9D9D9E9EA0A1A2A4A6A878
:101F7000AAACADAEB0B0B1B1B1B1B0B0B0B0B1B16A
:101F8000B2B3B5B7B9BBBDBFC1C3C4C5C5C5C5C56F
:101F9000C4C3C3C3C3C3C4C5C7C9CCCFD1D4D7D9A5
:101FA000DADBDCDBDAD9D7D6D4D3D2D1D2D4D6DAC5
:101FB000DEE3E8EEF3F7FAFBFBF8F4ECE2D6C8B7A1
:101FC000A6938074685B50453A3128201A140F0C90
:101FD0000A080808090B0E1114181C2023272A2EA2
:101FE0003033353638383939383837363635343392
:101FF000323232323333343537393B3D3F4143455A
:10200000484A4C4D4F5051525353535353535353CB
:102010005352525253535454555658595B5C5E6058
:1020200062646667696B6C6D6E6F707071717171EF
:1020300071717171717272727374747677787A7B60
:102040007D7F808183858688898A8C8C8D8E8E8E1B
:102050008F8F8F8F8F8F8F8F8F909091929394957A
:1020600097999A9C9EA0A2A4A5A7A8AAABACACAD38
:10207000ADAEAEAEADADADADADADADADADAEAFB087
:10208000B1B3B4B6B8BBBDBFC1C3C5C7C9CBCCCD56
:10209000CDCECECECECDCCCBCACAC9C8C8C7C7C894
:1020A000C8CACBCDD0D2D6D9DDE0E4E8ECEFF2F56A
:1020B000F7F8F8F8F6F4F1ECE6E0D8CFC6BBB0A537
:1020C000988C80776E655D544C443C352F29231ED7
:1020D0001A1613100E0C0B0B0B0B0C0E1012141700
:1020E0001A1D202326292C2F3235373A3C3D3F40FC
:1020F00042434344444444444443434242414141B3
:1021000040404040404141424344454648494B4D90
:102110004F51535557595B5C5E60626365666768F3
:1021200069696A6B6B6B6B6B6C6C6B6B6B6B6B6C01
:102130006C6C6C6D6D6E6F70717273757678797B87
:102140007D7F8081838587888A8B8D8E8F90919209
:102150009393949494949595959595949495959539
:10216000959596979798999A9B9D9EA0A2A4A5A7AE
:10217000A9ABADAFB1B3B5B7B8BABBBCBDBEBFBFFD
:10218000C0C0C0C0C0BFBFBFBEBEBDBDBCBCBCBC6C
:10219000BCBCBDBDBEC0C1C3C4C6C9CBCED1D4D7E3
:1021A000DADDE0E3E6E9ECEEF0F2F4F5F5F5F5F46E
:1021B000F2F0EDEAE6E2DDD7D1CBC4BCB4ACA39B30
:1021C0009289A200D60209053F077809AF0BE90DF5
:1021D000231060129914D7161619551B921DD51F7E
:1021E000142256249626D9281A2B5E2DA02FE731CB
:1021F0002A346F36B438FB3A3E3D853FCC4110441B
:102200005A469E48E74A2D4D774FBB5107544956D1
:102210009758D95A285D675FB861F8634B6689683B
:10222000DC6A1B6D6D6FAC7100743F769278CD7A6D
:102230003C7D2D7E496E8A51E83A622DA6251A21F1
:10224000B11E6C1D001DFF1C5E1DE91DA11E771F28
:102250005D205F2166228E23AD24F1252A2789285F
:10226000D7294C2BAE2C382EAF2F4B31D6328034A1
:102270002136D7378D394A3B193DD83EBD40814282
:102280007E4440465548144A3F4CFB4D3F50F55163
:102290004F54FE556C58195A985C425ECD6074627A
:1022A00016655366EA596D49E52E3C1501FFA5EC0C
:1022B00091DFE9D485CD41C730C396BF82BD8EBBC7
:1022C000ADBAC1B999B959B9A2B9D4B962BAE3BA28
:1022D0009EBB57BC2EBD10BEFDBEFFBFFDC017C2CA
:1022E00023C352C46EC5ACC6D4C721C957CAB0CB2C
:1022F000F6CC55CEA7CF12D172D2E5D353D5CBD6DB
:1023000045D8C7D94EDBD4DC67DEF3DF92E128E3A2
:10231000CFE46BE61BE8BDE976EB21EDE3EE93F04D
:102320005DF215F4E4F5A3F77AF93FFB1CFDE4FE3A
:10233000E000650114F1EFD3E5BC01AFE3A6FBA11A
:10234000369F999DD59C819C919CCB9C399DBD9D30
:10235000619E169FE29FBBA0A5A1A0A2A6A3BDA4BB
:10236000DDA50EA747A88EA9DFAA3FACA4AD15AF87
:102370008FB016B2A0B339B5D5B67DB82ABAE1BBD5
:102380009DBD61BF29C1F9C2D1C4ABC68EC872CA96
:102390005ECC4ECE43D03CD239D439D63ED847DA83
:1023A00053DC61DE74E08AE2A2E4BEE6DAE8F9EA30
:1023B0001BED40EF66F18EF3B8F5E4F712FA42FC3C
:1023C00072FE0000FF7FF475FF7F607BFF7F817DE1
:1023D000FF7FB57EFF7F7D7FFF7FFF7FC57FFF7F14
:1023E0007A7FFF7F4D7FFF7F397FFF7F397FFF7FC0
:1023F000477FFF7F5E7FFF7F7B7FFF7F9B7FFF7F2E
:10240000BB7FFF7FD77FFF7FF07FFF7FFF7FF37F63
:10241000FF7FE87FFF7FE07FFF7FDE7FFF7FDE7F44
:10242000FF7FE27FFF7FE77FFF7FEE7FFF7FF37F0E
:10243000FF7FF97FFF7FFD7FFE7FFF7FFC7FFF7FB8
:10244000FB7FFF7FFA7FFF7FFC7FFF7FFF7FFE7FA9
:10245000FF7FFA7FFF7FF47FFF7FED7FFF7FE87FC5
:10246000FF7FE37FFF7FDF7FFF7FDD7FFF7FE07FF9
:10247000FF7FE77FFF7FF27FFF7FFF7FEF7FFF7FA1
:10248000D77FFF7FBA7FFF7F9A7FFF7F7B7FFF7FB2
:102490005E7FFF7F467FFF7F397FFF7F397FFF7F32
:1024A0004E7FFF7F7A7FFF7FC47FFF7FFF7F7D7F2F
:1024B000FF7FB57EFF7F817DFF7F617BFF7FF475AE
:1024C000FF7F000001800C8A00809F8400807F8253
:1024D00001804C8100808380008000803C800080EF
:1024E00086800080B2800080C7800080C780008026
:1024F000BB800080A2800180858000806580008094
:1025000045800080298000801080008000800E803F
:1025100000801A8000801F8000802280008022803E
:1025200000801E80008019800080138000800D8054
:10253000008007800080028001800180048000808C
:102540000680008005800080058000800180028078
:102550000080078001800D8000801280008018803C
:1025600000801D80008021800080228001801F80EB
:102570000180198000800D80008000801180008023
:102580002A800180458000806580008085800080F1
:10259000A2800180BA800080C7800080C680008051
:1025A000B2800080868000803C8001800080828034
:1025B00001804C8100807F8200809F8401800C8A92
:1025C0000080000000010002FF02FF03FF0400067C
:1025D000FF060108FF08000A000B000C000D000EAA
:1025E000000F0010FF1000120013FF13001500165B
:1025F000011700180019001A001B001C001D001E06
:10260000011F0020002100220023002400250026B5
:10261000002700280029FF29002BFF2B002DFF2D6C
:10262000FF2EFF2FFF30FF31FF320134FE34013621
:10263000FD360238FC38033AFB3A043CFA3C053ECE
:10264000FA3E0740F8400642F9420544FB4403467F
:10265000FE4600480149FA49084BF24B104DEA4D3D
:102660001B4FE04F2451D5512F53CB533655C455F2
:102670003C57C1573D59C359385BCC5B2A5DDE5D81
:10268000155FF85FF6601C62CD6248649D647D66EC
:102690006666B5682C68EF6AF469266DC06B526F88
:1026A0009B6D7071886F767391715A75C3730F77D4
:1026B0002C768078ED787B79517C8079FF7F297644
:1026C000FF7FA0CB0180418E0080BD8A0080798A87
:1026D0004C83168B7686158C57894D8D098CAF8E61
:1026E000948E3590FF90D8914D93979381956E95E8
:1026F000A0975A97AA995899A69B629B979D749DFB
:10270000809F8E9F66A1A9A14BA3C4A32FA5DEA580
:1027100019A7F4A706A903AAF7AA0FACEDAC18AE47
:10272000E8AE1BB0E6B01BB2E7B21AB4E9B416B615
:10273000EEB612B8F2B80DBAF6BA09BCFABC05BECC
:10274000FDBE03C0FFC001C202C300C402C5FEC576
:1027500002C7FFC703C9FFC902CBFFCB02CDFFCD24
:1027600001CFFFCF01D1FFD101D300D401D500D6D5
:1027700001D700D800D900DA00DB00DC01DD00DE83
:1027800001DF01E0FFE000E201E300E400E500E634
:1027900000E701E800E900EA00EB00EC00ED00EEE4
:1027A00000EF00F000F100F201F301F400F500F693
:1027B00001F700F800F900FA00FB00FC01FD00FE43
:1027C00000FF0F02D6148625FB32093E5646A64C62
:1027D000C85064533454A4535651774D8A478A3FA6
:1027E000F534C727A317CC0458EF20D815C0FFA88D
:1027F000D694518623801785029749B6F8DF040ED8
:10280000F03B3D60F3713E6CF94EB21EEEE42CAE2F
:1028100005899D81F19E92DAE920C55BED72AD5C80
:10282000E621DCD65E980F80179E57E7CE39EF6D14
:10283000B467E32BA3D704932B8256B3770C2F5B9B
:10284000B0717A435EED3F9D87805EACAB07445A22
:1028500080718940EEE7E698698150B327100B5FDD
:102860002570263C6EE4439822813BAF0B0710573E
:10287000B672E34D72006FB01A83E68EF2CEA321DA
:10288000B361DF715E4FE10C38C4C38FB780129D16
:10289000ECD84F1D11569471B56A09485E14E9DCF5
:1028A00092AC4A8C44808D899FA4D5CB58F6F61EF5
:1028B0008A42C95CAC6CCA72C970A568605CC64DBE
:1028C000543E302F3221E1149C0A9502E3FC91F929
:1028D000A0F811FAE5FD18049E0C60171E247E3244
:1028E000D44140517C5FF56AC571D7713269555644
:1028F000FF381D134FE987BEF699F583B8816595BA
:10290000CDBCBCF1F429F15853715569243E4AFC01
:102910002BB8D78850833AA994ED7E37106A336D6F
:102920008E3993E67B9B1E801CA368F16D44707109
:10293000F45A4A0AD9AE7E80B89C6BEF5348A07215
:10294000CE4ECDF1B199FF8165B96518B764CA6AF9
:10295000AA22E4BD4682C69863ED5449BC72EC4A93
:10296000A4EB0C960D83CCBB7618EB629F6D9C2F6D
:10297000C9D0E88AB887D1C3F41A6B60BF70984198
:10298000A2EDC7A00080D198AED991267560807263
:10299000C554E0142FCD32951C80939036BDCDF7F1
:1029A0000331605C63711E6DCA518F2673F6D0C807
:1029B000E8A2B38A7A805E831F9029A411BCC1D596
:1029C000B1EE66163B502F4F4D5F7960D46ABD6CF7
:1029D000FD74D377A77F6F7FFF7F9B7FFF7FCF7FC4
:1029E000FF7FF87FF47FFF7FDA7FFF7FC97FFF7F64
:1029F000C17FFF7FBE7FFF7FC07FFF7FC87FFF7FDC
:102A0000D17FFF7FDB7FFF7FE67FFF7FEF7FFF7F51
:102A1000F87FFF7FFF7FFC7FFF7FF87FFF7FF57FE1
:102A2000FF7FF47FFF7FF47FFF7FF77FFF7FF87FDB
:102A3000FF7FFA7FFF7FFC7FFF7FFE7FFF7FFF7FAF
:102A4000FE7FFF7FFC7FFF7FFC7FFF7FFD7FFF7F9F
:102A5000FE7FFF7FFE7FFE7FFF7FFA7FFF7FF87F95
:102A6000FF7FF47FFF7FF07FFF7FEC7FFF7FE97FB9
:102A7000FF7FE87FFF7FE97FFF7FEC7FFF7FF47FB1
:102A8000FF7FFD7FFB7FFF7FEC7FFF7FDB7FFF7F93
:102A9000C77FFF7FB27FFF7F9E7FFF7F8B7FFF7FA0
:102AA0007E7FFF7F787FFF7F797FFF7F887FFF7F3B
:102AB000C07B92769471F06B5167855F0B5B964D8E
:102AC000C04939EAFFAFF3B0D6A0999F1995299371
:102AD000F28A1188478090800080638001802F8077
:102AE000008007800D800080278000803780008074
:102AF00041800080438001803F80008039800080D9
:102B00002F800080258000801B8000801080018045
:102B100008800180018004800080088000800B8094
:102B200000800C8000800B8000800B80008008807B
:102B30000080068000800480008002800180008088
:102B40000380008003800080048000800480008077
:102B5000038001800280038000800580008008805F
:102B600000800C800080108000801480018016801E
:102B700001801780008017800080148001800D8004
:102B80000180048004800080138000802580008004
:102B9000388001804D8000806280008074800080D9
:102BA0008280008089800080888001807A80008017
:102BB00059847289548EFD93A1985EA0D4A45FB20B
:102BC00095B687027907990C9911BD16B11BB720EC
:102BD0008225622AF02E8733CD370F3C1040F64312
:102BE000AC47334B9D4EC351F754B657B65A125D9E
:102BF000E45FE26191643666C068136A7A6C866D40
:102C0000C56F9B70AA725B732D75D1755377007871
:102C10001B79F279957AA87BB87B2C7D937C7A7EA0
:102C2000267D967F787DFF7F907DFF7FFC7C787F7F
:102C300037796F7C49755179297182766C6CAC75E6
:102C40000559419D8B89F091848B8791368C9791A2
:102C5000E78CE091D68D5492FA8EF0925690C693FE
:102C6000ED91CE94B4931B96B595A997EB97859962
:102C70005A9AB59B0B9D399EFC9F16A131A35CA46B
:102C8000BBA607A89DAA15ACDFAE9DB090B39CB5BE
:102C9000B2B812BB51BE10C178C490C71ECB8ECE45
:102CA0004ED211D6FCD9FDDD05E23EE661EAB3EE77
:102CB000DAF223F737FB66FF4D034307CA0A040E17
:102CC00014111914F816BC195E1CE41E52219E231F
:102CD000D425E627E229C42B922D442FDD3066321D
:102CE000CE3333356A36AC37B138D639AF3AB93B23
:102CF000633C513DD63DAE3E103FCD3F1140B1400B
:102D0000E64061418D41E3410E4236426B426342EF
:102D1000AA426B42CE424D42D2421742C242C54104
:102D200091425D415042E740F3415A408441B93FEE
:102D30001741D93E3B41E138442C0730632FB23272
:102D40007F31E535F932023A6132534374FA87B67E
:102D5000B5C501BB29C014BA5BBC4FB821B953B685
:102D60002BB632B468B313B2DAB0FBAF77AEF0ADC6
:102D70004BAC01AC58AA3CAAA2A8A7A836A74FA75B
:102D800019A646A65CA59CA506A55FA529A5ABA589
:102D9000DEA592A633A72AA846A995AA33ACECAD26
:102DA00017B04FB211B5E1B743BBB0BEC2C2DDC66A
:102DB000A2CB73D0D6D557DB61E17BE70FEE9BF456
:102DC000A3FBE7014F053206AE05A205B40646088F
:102DD00067099D0AA90CE10F72146E1AFF20FE26E6
:102DE000152C4B31BF37DC3EDD44BC49CE4FE45897
:102DF000D7639C6D9474BF79247EFF7FCD7CCA73AA
:102E00005C68D65E4D594D577A58895DD565896D98
:102E1000DA6FAB6B06650B61A7606360C55C7F55BD
:102E20008A4C71437B3AD131452ABB24B4214C21D1
:102E3000EE222725462661259B22761E8D19371501
:102E40005C1387149C162316D8103207E0FB2BF274
:102E500074EC0DEBFBEBC4EC97EC5CEC7EECD0EB94
:102E60002EE983E52AE381E32BE682EA47F055F673
:102E7000F1F97AF861F27CEBF8E7C1E819EB35EB90
:102E80005BE7C8E0C3D9B5D36BCF98CE63D3D9DDA8
:102E900026EAB6F23CF464EFF3E646DDAAD3F4CAC0
:102EA000B7C3E5BDEEB841B4B0AFAFAB78A97BAA6C
:102EB00018AF29B6F3BD44C51ACB08CEE1CC5CC827
:102EC0009BC217BDC7B7AEB2F4AE77AD49ADE8ACA3
:102ED000CCAC2AAF38B506BE30C836D360DE57E773
:102EE00088EBA8EAFFE616E338E00CDF78E02CE593
:102EF00097ECD6F4CCFB5700E4022A05BF08A10DDD
:102F00003D12FB147D156F14B61215114F10DF1012
:102F1000C212D315EF19461E252141211A1F761C16
:102F2000731AF218D917B11736188617EF132E0E29
:102F3000F2084206EC058306E00681068505E104F9
:102F4000A505A9074A09B1082A0539FFE4F78EF05B
:102F5000BEEA00E763E401E287E069E1DEE47EE9DE
:102F6000E6ED78F121F32FF1CAEB22E6CEE31BE583
:102F700051E772E873E9EDEB50EF98F1DBF1E5F022
:102F8000B5EF43EE45EC8DEA6FEAF7EB72EDFFEC3F
:102F9000DFEAFAE907ED39F3A5F821FAD5F766F487
:102FA000CEF140F099EF0EF0A0F09BEFD2EC65EA85
:102FB00099EA4CED0DF078F175F2ACF3FBF48EF775
:102FC00099FC1B00A20247055808D40B0E10C81428
:102FD000101AD41F7626902D3934BE3AE740AF46FA
:102FE000874C0F51E554925A7B5E33622966B46771
:102FF000546AE66E617398758E7690782E7BBC7DF0
:10300000AF7E617FAC7FD077D4685F54C43CE0264C
:1030100066132E0499F8DDF260F357F478F3FEF6A8
:10302000CEFEB90219021001E9FFEFFB78F3F0E7D9
:10303000B4DC67D264C92AC1BBB966B535B2C4ACC9
:1030400054A5739F999C679B509A1B9B899F16A4BC
:1030500001A7B7A993AEA1B618C0ECC89DD1F7DA05
:10306000BCE21DE78BE91CECEFEF1BF308F4FAF46C
:103070003DF60FF762F7D7F7B7FA980084084511C5
:10308000B41B95272C324E3A2F40CB45BC4B2351D5
:103090001356555A565D295EED5B9F57D3521D4E10
:1030A00025493244913F003B9E3672321B2F2A2D18
:1030B000712CDB2C9A2D262E6E2EC12D6F2B78278E
:1030C0007222A41C6A160C10150AAB04C3FE00F889
:1030D00097F084E85BE07DD864D176CB84C672C279
:1030E00023BF9DBCFABA55BA97BAF6BBC0BE2BC275
:1030F0005EC554C8F7CA0CCD41CEA2CE9ECE52CEEC
:10310000C2CDC5CC7BCB77CAFEC908CA36CB68CE48
:10311000A5D350DAC9E1D7E92DF219FA4F01170802
:103120009C0EC4143D1AC61E6222F7249E268227D6
:10313000C227B527C127CA27A927D027FD274C2892
:10314000B7287829F72A1B2DA12FF431F0338035C9
:103150005C362B364935D733FB318E2F2B2C442749
:10316000BC1FFF15FA0B9302B7F913F2C3EA42E34F
:103170003DDDF7D85AD571D29AD060CF7CCEECCD58
:10318000BCCD2FCD73CB03C92CC79FC52BC444C363
:10319000EEC1C1BF72BD9EBBCAB9FCB726B733B77B
:1031A00095B7DBB85CBBD5BEEFC2DAC7D9CD79D451
:1031B0007DDB41E2CFE783EC0AF1D2F4ECF7CCFA05
:1031C00077FD35CAAD214D7D85726574C676C870B0
:1031D0008F7C9142991C582671213724A02271239B
:1031E000222310235F23DF227A23C6228223C022D8
:1031F0007C23C2226C23CD225823DA224123E822E9
:103200002A23F6221423022300230A23F0220E236A
:10321000E4220E23DE220923DC220023DF22F02217
:10322000E422DF22EE22CB22FB22B52208239D22BC
:103230001423872220237522262368222623632233
:103240001E23692208237B22E222A122AA22DC2259
:1032500059223523E221B6233A217A243420D42579
:10326000261EAB293D0E39F86E0914E948F9CEFE49
:103270001CEEA4F6AD0780F70BF6410B35F04CF4CD
:103280000BF9AB02D7FE21E9BBFF87F9DAEB54005B
:103290008B036FF3B4FD0F0867E8F1FE5625AF20EE
:1032A000E6237D214923FB21E0224C229A22802221
:1032B0006E229A2259229E225622922262227A223B
:1032C0007822572296223122B3220A22CF22EA21E3
:1032D000E522D321ED22C921E422D321C422F82101
:1032E000842244221922C2228021CE22B9F6A8FECD
:1032F000CDEE7FF4EC09EAF3C1F90706E4F576ECCC
:10330000AD029BF238EF050491FF1FF11605F0DACC
:1033100027ECC0FB44F917093EE9A9F861FD37F134
:1033200028EE30DFCDCB38D353CF76D168D0C0D0A4
:10333000EFD067D035D13CD059D12DD067D131D025
:1033400066D142D05CD15BD04CD178D038D197D007
:1033500024D1B7D012D1D4D002D1EDD0F7D003D13F
:10336000EFD015D1ECD023D1EDD02DD1F1D034D187
:10337000F8D039D1FED03DD108D140D114D143D1BC
:103380001FD144D129D145D135D146D142D146D1E1
:103390004DD146D15BD146D168D145D175D145D10A
:1033A0007ED14ED17DD167D162D1ACD1F5D088D25A
:1033B00040CF32D7DBA70080428700800B86008099
:1033C000F185230FE81EF22A19393742AF3ED64065
:1033D0007A3F3A40D73F522D3E2A4D2A272C5A1D7C
:1033E00063134916DE140A15350206FF0501A5FE12
:1033F0003902D2F7A7E9E7EACFEA50EA36EBFCE96F
:1034000086EB9AE93BEC81E652D52ED59CD502D5C8
:10341000AFD5FED4ACD508D59AD51ED580D53DD52F
:103420005BD568D527D5AAD5CAD445D66DD370E06B
:10343000DEEC6BE995EBEAE95FEBF3E987EB65E935
:1034400065EE0D0029008AFFE60016FEB70C1D1779
:10345000B21405158024CD2C3E290B2C593CD241A9
:103460006E3E9941153EE3421234FA29D01968FFA5
:1034700086D943B441A9308F008031800780018014
:103480005680008037927295359A02AE65A729BCA6
:1034900063BF2EC4C9D57DD56FD474E5C1EB45EDAE
:1034A000390343FCD60F4B1408209D2C662A703E2E
:1034B0009440383F73410532BA22B30655D7A4B3BE
:1034C000E396838601804C810080458100804F9087
:1034D000DA954F9899AC71A809B758C2B4BD8DC59B
:1034E00044D534D657D384DDE0EBD1EA1FE9B4F5F7
:1034F000FC0158FF7BFFA70D0C18F012281B752B41
:10350000E629AE2BC6283736E041F53EB240773F7C
:103510006D409D3F5C40983F7E40393F9341D7329C
:103520005628402C4529162CFF28262D0822F21358
:10353000CF1535153C159B15D41430169213041E67
:10354000F42C4529C62BA229C92B2229EA2E524048
:10355000E33FF83F1740DA3F2A40CB3F3840BB3FBC
:103560005140873FD0408F2FF0280C2C2229F92C76
:10357000B21B44146E15D615C8033FFFE0FF480187
:103580008DF40AE86AEC31E908EC7AD78BD570D46F
:1035900049D745C850BE8FC087C0FBB986A79EAD2E
:1035A00093A28A934197B98D018055810080E5806F
:1035B0000180F08000802C854B98FEA654BA59D12A
:1035C00093F5FD2C5B45D33C4842333E7741C33EE7
:1035D0000A411B3FC240583F8E40873F6440AB3F8B
:1035E0004440C83F2940E03F1440F33F01400740BA
:1035F000EF3F1A40DA3F3040C33F4940A93F6540A2
:103600008B3F8540693FA640473FC840273FE64083
:103610000B3FFE40FA3E0841F73E01410A3FDF40C2
:103620003B3F9B40983F1F403A404B3F5C41AF3D82
:10363000D0436039C44D6ABD008072890080128514
:1036400001804B8300803882008075810080E1809A
:103650000080708000801B80088000803B8000809C
:103660005A800080678000806980008060800080D0
:103670005380008044800080368000802B80018051
:10368000298000802E8000803A8000805080018058
:103690006D80008092800080C0800180F680008074
:1036A00044810080E88100804888D6BE80C06EBF1B
:1036B000AAC04ABFC2C03DBFC3C046BFB0C061BF01
:1036C0008BC092BF4FC0E0BFEABF64C02EBF90C1A5
:1036D000C2BC48CC2F0218FFF2FF110172FDA805F1
:1036E000049E008040850080F88200801082008067
:1036F0008A8100802B810180E1800080A080008091
:103700005C80008000804E80008002B639C3FBBD23
:1037100091C1AEBE30C1E8BE0AC100BFFCC008BF47
:10372000FCC002BF07C1F1BE22C1CBBE5AC170BEF0
:10373000FFC1E9BC62C9F2FFE3FFEAFF3C00A9FF59
:103740006B0084FF8A0068FFA6004CFFC3002AFFBD
:10375000EC00F8FE2E019FFEAF01D1FD220366FAB8
:10376000A8166645303DCE41B93EEA40573F6F400E
:10377000C13F0D402140A93F8F402C3F2441763E60
:103780000E42333DF543DC39C14B54075AB3EEC604
:103790002EBBE1C336BC57C7EDFC2B013FFF8500B4
:1037A000A8FF3300EAFFFDFF1600DEFF2B00D3FF6A
:1037B0002900E3FF09001700BBFF8D00FFFEDE01BB
:1037C000F6FB3F05324C354D6E5CFD5EB168F26B29
:1037D0008F73BD77137FDC7FFF7FF57FF87FFF7FDF
:1037E000DA7FFF7FC57FFF7FBA7FFF7FB67FFF7FD6
:1037F000B97FFF7FBF7FFF7FC97FFF7FD57FFF7FBF
:10380000E17FFF7FEB7FFF7FF57FFF7FFD7FFE7F07
:10381000FF7FF97FFF7FF57FFF7FF37FFF7FF37FE0
:10382000FF7FF47FFF7FF57FFF7FF87FFF7FF97FCA
:10383000FF7FFB7FFF7FFD7FFF7FFE7FFF7FFE7FA0
:10384000FF7FFF7FFF7FFE7FFF7FFD7FFF7FFD7F8D
:10385000FF7FFC7FFF7FFB7FFF7FF97FFF7FFA7F8A
:10386000FF7FFA7FFF7FFB7FFF7FFD7FFE7FFF7F74
:10387000FA7FFF7FF57FFF7FEE7FFF7FE67FFF7F91
:10388000E07FFF7FDA7FFF7FD57FFF7FD47FFF7FE1
:10389000D67FFF7FDD7FFF7FEA7FFF7FFC7FF57FA5
:1038A000FF7FD87FFF7FB67FFF7F8C7FFF7F5D7FAD
:1038B000FF7F217FFF7FCB7C117AF3730172086B4E
:1038C000FA688860D15D3E52D24D352F4CC67DB02E
:1038D000E4A9AC9F619B0C936A8FA387F082008060
:1038E00014810080DD800080B180008088800080AD
:1038F000638000803F8001802180008009800380F8
:103900000080148000801F80008024800080278039
:10391000008026800080218000801C80008016802E
:103920000080108000800A80008005800080018077
:103930000380008005800080068001800880008070
:103940000780008006800080068000800480008060
:1039500002800280018004800080078000800A804D
:1039600000800C8000800E8000800F8001800F801E
:1039700001800E8000800B80008006800180008026
:103980000A80018013800080218000802F800080C9
:103990003C800180488000805180008057800080FA
:1039A000568000804D8000803C800180F88207872F
:1039B0005D8AC78EE991A097919ABBA254A53CB3AA
:1039C00099B42607E028B92E9819FC0A4F2DC34355
:1039D000253816209A21393C53490A458D32413108
:1039E0008A466252284A8537B23C45509053BC43C0
:1039F0001A3AD84AF85546505446A6446E48B94E2D
:103A0000A6552C535D4C1C4EBE5458567E5A705EC3
:103A1000275E4B5CE65E3E63CE6580684E6BE66C6F
:103A20000F69E869B87115772672786B806F237912
:103A3000E2783D754B6FE7757179A079CB7313759B
:103A4000D1782E784F732373427804761E73C56A3B
:103A5000BC6985683875C76CC45B994C58783E3B27
:103A6000CFA1FC8F9A47463D4A89E5814A92C0AB77
:103A70007E86258161820584F9820080BE816E8008
:103A8000268300804E810080A885D28371820180C8
:103A900063866A8E368D48857889D994D1AD6FAAB0
:103AA000609FE19FA6DBCF2AC703EBCFA9110C4F84
:103AB00087478B1B83277852E353B328E707D3301C
:103AC0000C47EE2199D943CA64ECF8EAD4BD85AB22
:103AD00032B6F2B639A5299EA5A7EEA7B99D629A7E
:103AE0004EA1E4A49BA48EA4B1A75FAC15B271B3A0
:103AF000FEB677CDA0F982F9A5D422E66C2AB046AD
:103B0000A93E52365C3BF3493753BB573154A75457
:103B10009B56D454A24BA74EBC59EB599A437C2DCB
:103B20007641AF529A4549165B062C24F123B20325
:103B30007EE877E23DE1EAF348EAF2C732C339E4CE
:103B40000DE80CC614C19ED1A1DA3FD35DD181D757
:103B5000CCE5D4EB64E2CFE0D5F011FE1B0A3B15B7
:103B6000FF10550B1118F81FEC23192AC322690006
:103B7000C101532B7C39FD161DE0D2E5CB15042F76
:103B80003AFDD9C588CA93FF85047BCEF7C3EBD72E
:103B900054D546BF0AC5F5DCBED7F7BCE0B68AC629
:103BA000C3DB07DB5ACCE3C2D6C205DA56F882E89B
:103BB000BBCC35DD7802E2F734DE26FE551EEC0C78
:103BC00046EF68057719B32CA73E3F4E355B3D6540
:103BD0008E6C62714274AB752D76307619761076E4
:103BE00023761D769E7503747F700C6AAC5F595006
:103BF0009E3B8121D203ECE3FCC235A5A48E7D82DD
:103C00007F82EA8E5FA643C60BEBD010DB330F51E9
:103C10004B668872DE7553719F66C257CE469235E9
:103C20008925A317770C3404E8FE71FCB5FC9AFFD4
:103C30000805E30CF816EE223E303C3E1B4C0459BE
:103C40002964E16CB4726E751E750F72C36CD96510
:103C5000025EF3554D4EA9477242133FBD3D9F3E54
:103C6000B641F046034E8256B55FA9681F709F7437
:103C70008674426E9560F24AFE2D0F0C89E8E8C406
:103C80005DA5478EE9812C81408B699EFDB740D5AB
:103C900069F34110052AC63F0951055E1F67266D6D
:103CA000C570D472CB733C743374EE730C737D7136
:103CB000986E276A74635F5A784EEC3FC62EA51B38
:103CC0001707FBF13ADD8AC9E3B77BA80B9C1A9270
:103CD000218B058637833481AE800080538013802A
:103CE0000D81DC81DA84D8889390E09A5CAA7DBD4E
:103CF000EDD57AF19BFD2317C633B14CCC623E70F3
:103D00005975E06DBB5B153E3D1A94F399CEF2AC4C
:103D100053940B853A80AE83448E2E9DCEAEFCC06C
:103D200083D244E2A4EF52FA0C02FF06FC085708C3
:103D3000DD04F6FE74F6DEEB2DDF29D11BC2FFB2E7
:103D400070A47997C68C2F850C81AF80EC83698A2B
:103D50007593489EEEA984B541C074C9A9D079D5A0
:103D6000B6D734D7EDD3E0CD39C54BBABCAD74A0CE
:103D7000C1932989638216819A86C29392A832C41C
:103D8000E0E41108B72AA249D7611071FB756E7083
:103D90007961254B4730F11332F9A1E0CFCAC9B898
:103DA000A7AA21A0A898AA93A490318F1B8F549002
:103DB000F49230974D9DA1A556B096BD29CDCDDE8C
:103DC0007DF1D30D47363D5BE074967FA97CB870DA
:103DD00063614B53AA49D945DF479E4E6B58316307
:103DE000F46C707435799E7B2E7CE07AC276B06D6F
:103DF000475D77437D207AF72CCEBCAA6991DF839B
:103E000001800282C4855E8877883D860A838B8024
:103E100027803C822986578A198D108D028AF18469
:103E2000A5802381E08ACAA0D7C2B1EB141436382A
:103E3000C153AC65DB6F737464753673C16D5764C1
:103E4000FE569D464035A325271A8B1412162C1FAB
:103E5000AE2FB245C85D7B72707E6C7E8672015E4D
:103E6000E1450F2F331D5012E90EF1126E1DE02CAB
:103E7000E93E1A510C611E6DFB743579BE7A167AD3
:103E8000BD76326F6861064C0C2FA50C10E99CC8FA
:103E9000B6AEA49C9691FD8B4E8ACD8BCA902D9A7E
:103EA000CAA85EBC71D36BEB4901DB12741E4023C0
:103EB000E2204517900698EF9FD4F6B87FA0718E48
:103EC000F0832580AD8086827D83B682DC800A8087
:103ED000E0827F8BBD9A5BAF84C6CFDC1BEF64FBB7
:103EE000A0005EFED3F4D1E43BD077B9E2A37F9289
:103EF000018763810080898000819C8000804681E9
:103F000031873D941FA98BC408E39100F019E12C7F
:103F1000BC38A13DEE3BE133BE2566126DFB5DE38F
:103F2000F7CC46BABCAC9EA4C7A139A480ACC0BB38
:103F30006ED266F1B817E03D2E5C2A70BF7AF17E32
:103F4000F17FFF7FFD7F867F6E7D77780E70DB646B
:103F5000B6581A4E82479D463F4CD4571867F075A5
:103F60000B7FBF7D7C6F85551A34511101F24CD9FE
:103F70007DC824BF7FBCC2BF4FC855D583E5FAF6C4
:103F80006907C6146C1D0E20D31BFB0F88FCFCE1D7
:103F900026C3A9A4CC8CC7806F837393D3AB1EC6F2
:103FA000B5DCB9ECEBF4B5F5D5EFAFE4EBD5DEC598
:103FB000EDB6F6AAF2A2599F5CA0E8A649B45CCA85
:103FC000E3E8514B5C7AEF6624726C676B6E6A664D
:103FD0006F6B066599687563EA65BD615D63E75F50
:103FE000DE60025E765E065C245CE959ED59BD57E1
:103FF000CD577B55B8552A53B353D250BB51694E58
:10400000CB4F014CE04D92490A4CD6464E4B9E3C5C
:1040100089C433B9C8BF67BC60C1C3BE40C30AC14D
:1040200025C554C30AC7A2C5EBC8F2C7D2CA3ECA47
:10403000BBCC85CCAECEC6CEA7D0F9D0ABD21FD3E9
:10404000C2D437D5E1D641D70BD942D948DB2CDBD6
:1040500095DDFCDC07E097DEF4E2E2DE1CED661D98
:104060003F1BE21AA3196C18C1171716C115E013EC
:10407000AC13B6118811930F620F790D330D630BDA
:10408000020B5109CF0840079D062F056D041A0346
:104090004402F60000000300F9FF0A00F4FF0D00DF
:1040A000F1FF1000EFFF1200EEFF1100F0FF0F0014
:1040B000F2FF0D00F5FF0A00F8FF0700FAFF03000A
:1040C000FFFFFFFF0500F7FFA400C301D202DF03DB
:1040D000F804FD051F071D084409390A670B590C30
:1040E000890D780EAA0F9810C911B812E413DA14CA
:1040F000FE15FD1614182319251A4B1B331C721DAF
:104100003E1E9D1F4A20C6215122EF235B24152607
:104110006726342879284D2A912A5A2CB12C602EF2
:10412000DF2E55301B31363268330834C935BD3582
:1041300048384937F63A9C38F53D6E39E0414B38FE
:10414000604B740A5AB3B5C2ECB863BDAAB812BAD0
:104150006BB756B7D9B5E1B413B48EB231B25DB016
:1041600038B045AE2BAE3CAC13AC43AAF5A94EA873
:10417000CFA763A6A8A579A484A389A26AA194A0C5
:10418000589F969E4F9D8C9C579B769A6F994F98FF
:1041900093972096C695E893FF93A2916F9294907F
:1041A000C092639010934190599327908E931D90E5
:1041B000AF933F90A49387904F9331919A927F92BF
:1041C000489311E4D0075EFB63034BFD3F0217FEEB
:1041D000A101A6FE3301FCFED80052FF8600A5FF18
:1041E00021003C01A100ADFF3200E2FF0E00FDFF07
:1041F000FCFF0900F3FF1000EFFF1500E6FF2B00A6
:10420000A4FF9D019B013BFF9A007AFF7A0096FF75
:1042100043006302CC0081FF2600B4012C028C0114
:10422000A2030113CF0273FE3D01E9FEFE0015FF5C
:10423000DA0033FFBE0050FF9F0074FF7100BBFF28
:10424000E0FF4B020B036CFE3C01F0FEEF0035FF7C
:104250008800AA035C0117FF68006202B603C1016F
:10426000E30640219803E0FDDA0142FEA70180FE4B
:10427000110165027004E9FC7102870255034B04C9
:104280007510D61A7B071AFA5805DAFE9908D8FA7B
:1042900023139F28820B39F8A71EDE28E027783EDB
:1042A000516EA83A008081814F800080FF8100809C
:1042B0009A820180BC8200809D82018057820080AA
:1042C000FD8100809881008030810080CD80008059
:1042D000768000802C8000800080298001804D80C5
:1042E0000080638000806B8000806A800080618035
:1042F00001805380008043800080318000802080D6
:10430000008012800080078000800080078001808C
:104310000B8001800E8000800D8000800D80018068
:104320000C80008009800080088001800680008069
:10433000058000800480008003800180038000806D
:10434000048000800480008005800080048000805C
:10435000048000800380018000800380008007804B
:1043600000800B80008010800080168001801A8001
:1043700001801E80008020800080208001801C80C1
:1043800001801480008007800380008017800080F7
:104390002E8001804A8000806780008085800080B8
:1043A000A1800080B9800080C9800180CB8000801E
:1043B000BD800080938000803B80138001802C8131
:1043C0000080BC012876275C766B796040698C613F
:1043D00068693C4E073F464113400241074009418E
:1043E000E73F0941D73FEB40ED3F9B404E40C43F84
:1043F000BC41D425C810D11614138D15FC13841498
:104400004115CB02C0F698F979F86BF893F9EAF602
:10441000D9FB90C3C0A3D7AC05A7B1AB59A724ACB7
:104420004BA6C3E00AFEF4F5D1FA48F729FAC1F722
:10443000DFF90BF8AAF945F883F972F85FF99CF8EF
:1044400045F9C0F828F9DCF814F9FCF804F90FF97B
:10445000F7F81CF9EEF82BF9EEF82EF9EEF831F931
:10446000F0F82FF9F6F830F902F92BF907F927F9E6
:1044700010F921F916F91DF91FF91EF927F91BF991
:104480002BF91BF92FF919F92FF91BF932F925F935
:1044900033F928F931F92DF92CF935F927F93BF9D8
:1044A00022F949F91FF952F919F95AF914F960F981
:1044B0000FF966F90EF96CF914F96BF916F96BF945
:1044C00014F964FA70FB0DFB80FBE7FACEFB6BFA84
:1044D000D2FC28EDFCE138E43FE391E3CDE3F1E2E7
:1044E000DAE42DD500CAE4CC2ECB79CC63CB8DCCCD
:1044F00016CB06D6FBDC41DB3BDCB5DBE8DB36DC90
:1045000027DB19EB9CF5B4F278F45EF3FAF3FCF3D5
:1045100031F3C204C00F3E0CA30EB90C770EB00CE1
:10452000FA0E4F07FDFA50FC6AFB38FC5EFB71FC8B
:10453000AEFA5E02C90ED90C470E060D3A0EFB0C00
:10454000670E960BF0093C09350A00097E0A6008DF
:10455000030CF7F9CDDE4EE4FDDF39E476DF88E5C4
:1045600027DCC202412F9D29F72B5A2B952AF32CC9
:104570009527A4456F6AA062FE673E633268E261D8
:10458000E46B7C39E7FFB00B3704E809EB04D10991
:104590009803EA1E823A12342839E033013AF7319F
:1045A0003A3E6304F9D3C7DBA2D866D96FDA4DD798
:1045B00037DE2FAB0080EC87008093870180058B6E
:1045C00000803204BA04E505ED0307074E01821AA4
:1045D0005E41F83A563FB83B373F043BCB457E51EE
:1045E000A24F8E50F54F56501D5112691A6ECB6C6A
:1045F000856D056D5F6D636D38785A7925792579FC
:1046000043790679A079DD7AF97AB97A207B7A7ACA
:10461000AC7BD0768271CA7216727172A472F56B1D
:104620001454A84F5650395017507D50084FE83C4D
:104630005F3BF93B7B3B1E3CD039832205137E1543
:104640008C137A153B137916210B1902F0033103F1
:104650006403CA038DFE67F344F25BF25AF25DF223
:1046600052F282F209F408F419F4F9F33BF465F319
:1046700007F1A1F226F287F22CF291F2FFF155F444
:1046800013F69BF5DBF5C4F588F51FFBFE08390A28
:104690006E0AF4099E0AA309F70B081641160A16BA
:1046A0006A16B015AB18A02A44320631E031173132
:1046B000F531C330FC35C7381D38693844385138B6
:1046C0005138CB369C368F36B6366E36F4365B357F
:1046D000942FE32FC02FBA2F0C309C2A05231D1EC8
:1046E0001B1F491E611F231C55172E18B2170C18CB
:1046F000BD171C1829171E14640E630DD00D8A0DEA
:10470000AF0DC10DB70C1008E3083808D0084F08EA
:1047100094043AFCCAF6D0F730F7C8F703F75EF80E
:1047200049ECD4E6F9E855E70CE9A6E5A9DE49D459
:1047300096D386D3DDD339D379D424D0F5C496C6A5
:1047400086C557C6B8C503BEDDB27BAD52AEEEAD71
:104750003DAED6AD9BAE4CA2799DA99FC39D0FA047
:10476000489A488F5287BA86CB86F1869B864087C7
:104770001E855A81D881AC81A881D9811280EC82B2
:10478000B885BD847085D0847685B484A38DC98FA7
:104790001D8F968FFA8EC09AF0A13EAF0DB099AFE3
:1047A000E9AFDBAF27AF1AB58EC394BE62C34ABD73
:1047B00076CB9DDBB1EC65FAC2F5B6F873F664F81A
:1047C000B1F6C24E5279C0674174DE691F738F6AB9
:1047D000AD72D56A9B72746A96761E79DF7CBA7860
:1047E000CF7CF278857C2E79667DD77FBF7FFF7F77
:1047F000397EFF7F587AFF7FD3DBFB86FAA1739166
:10480000569D3A94A89B13AFF0B841B364B772B405
:10481000B3B5CFB475C4A1C214C40BC3C3C33DC3E5
:1048200005C465C50EC531C51DC693D1CDD084D292
:10483000FBD20AD32ED379D289D6ADDC23DB02DCBE
:1048400082DBB6DBD3DB33DB1FDE41E346E2CDE2C6
:1048500079E2B8E26CE257E307E88EE704E88CE718
:1048600012E864E716E97AEB24EB57EB23EB6CEBE9
:10487000EBEAB1EFC6F2CAF175F2E7F16BF2E2F1E1
:10488000ADF3D2F30AF4B4F348F471F50EF6E9FB94
:10489000D7FC4DFCCBFC47FCFBFCEDFF1F02570196
:1048A000220244014B02E000B1040A0993087E0889
:1048B0009E090510E30EC41323171916C5163F16DB
:1048C000B0164E16A51658169C165F169516651648
:1048D00090166B168B166F16881672168616731640
:1048E0008516731688166816BF163B1831183818C7
:1048F00036183518381833183A1831183D182E184C
:104900003E182C1840182A184318271847181C1846
:104910008B18FE19E719F819E619FB19E0190B1A9B
:10492000AA1946182318511810186D18E017DB182B
:10493000F4149C10AA110611831110119E11E80E97
:10494000920DFF0DB50DF40DB80DEE0D4A097D0861
:10495000B6089908AE089B08AE089708B4088E08F8
:10496000C208B90510053B052F052A0541050E05AE
:104970007B05FAFFBEFD9FFEFEFD83FE14FE69FE71
:104980004DFEF8FA4CF8BAF97CF8B1F97CF852F916
:10499000FDDF13DD4FDDC4DDA8DD44E1CCD6BAA4D4
:1049A00051A7FFA4FFA63BA5B4A682A7AFAC00AA5F
:1049B00069AC27AA43AC58AAFCABC4AA51ABD2AB92
:1049C0006CAAC90E6017F21381162714B4162513AA
:1049D000201FE12C36290C2CDD286F3BD940D23F1B
:1049E000AF3F06424E55F954D85578543F66F26BA6
:1049F000EE69276B546ADC6A9A6A8C6A126B2069CA
:104A0000B057B04F793C7A2E8C15E0E8B6D5F4B6A5
:104A100002ADE49C9D94B793CF8000804982AB9413
:104A200092953C95219519A53BADDCA759B39BC147
:104A3000F2BE28D1D3D612D432E784EB23EAE5EBD9
:104A4000B6FE2F0035001EFFC90EBC1712138125BC
:104A50001B2C3A29873AC741613E3C501A57915363
:104A600051668E6B566AC66AA26AB46A716A8B6BAB
:104A70005E5DA8515744F7307212F0F082DE6BC8C9
:104A8000D6AC68A4B093FA963F8F008086810180EF
:104A90009882BD9345967E942C96BF94EBA889AAE4
:104AA00051AB52A997AFFEC09BBF0CC062C0C4BE41
:104AB000EBCD85D7F4D368D66CD42ED672D407D775
:104AC000D6E880EB05EA45EB1AEA3CEB18EA47EB3F
:104AD00004EA6BEBC6E9E0EBACE81DF297013FFF9F
:104AE0006E00BDFF2800EAFF08000200F5FF11007C
:104AF000EAFF1A00E2FF2000DFFF2100E0FF1D00B7
:104B0000E4FF1800ECFF0F00F6FF03000200F6FFC1
:104B10001200E5FF2500D0FF3A00B8FF55009BFFCB
:104B200079006DFFB90006FF9D01AEFAB1E91AEBFD
:104B30007AEABEEAAEEA9DEAC3EA90EACCEA8BEAF8
:104B4000CDEA8CEAC9EA93EAC2EA9CEAB6EAA9EAA3
:104B5000A8EAB8EA98EAC9EA85EADDEA6FEAF6EA7D
:104B600050EA1DEB15EA99EBEEE7B9D529D58FD5BB
:104B700010D5A7D5FAD4BBD5E8D4CCD5D8D4DDD5BB
:104B8000C5D4F4D5A8D419D66ED485D669D339DC6A
:104B90002EECEAE92AEB4CEAFDEA5FEAF9EA5AEA86
:104BA00005EB47EA1EEB28EA4BEBE9E9B3EBFEE83D
:104BB00042F016017EFF4C00CAFF3500B7FF8400AB
:104BC000D0FEB916B635C22AE5316F2CEE30152D60
:104BD0007330772D1F30BD2DDD2FF92D9C2F332EF7
:104BE0005B2F6F2E112FB42EBE2E052F5B2E692F3B
:104BF000E22DE72F452D91306E2C9231082BAE33EC
:104C0000AB264448FF7FB57F4E7EFF7F0B7BFF7F47
:104C10006959C627B731172CD531B6F215D5E2E35D
:104C2000E8D5B3EA4B28C333CA272B38090D4FD830
:104C300093DEE1DCC6DCC4DD4BDC04DE2FDC08DE09
:104C40003BDCF2DD5BDCCFDD84DCA8DDB0DC81DDCC
:104C5000DBDC5FDD02DD41DD23DD2ADD3EDD1CDD49
:104C600051DD12DD5EDD12DD65DD17DD65DD22DD86
:104C700061DD30DD58DD41DD50DD55DD45DD69DDCF
:104C80003DDD7BDD35DD88DD30DD93DD32DD99DD39
:104C90003ADD97DD49DD8DDD60DD7BDD7FDD5EDDCD
:104CA000AADD39DDE0DD06DD22DEC4DC79DE6BDC89
:104CB000EDDEE7DBA9DFE3DA63E11CD79FF4B8336D
:104CC000912C0030472EFB2E022F652E832FE12DD5
:104CD0001530212D41318A2ABB3DFF7F1C7FFF7F8C
:104CE000807EAF37252C1C30C72D512F352EF62E48
:104CF0006F2EBB2E952E8B2EB22E612ECC2E3D2EDE
:104D0000DE2E1F2EEB2E092EF02EFF2DE42E052E6B
:104D1000C62E232E8B2E6C2E0C2E202FBE2CD23185
:104D200050F04ED7A0E082DA29DF60DB89DED7DBE6
:104D300026DE2DDCD9DD71DC9DDDABDC6CDDDBDC62
:104D400045DD02DD26DD23DD11DD3ADD02DD4CDD52
:104D5000FBDC59DDF9DC61DDFBDC65DD00DD65DDFB
:104D600007DD66DD11DD65DD1BDD65DD25DD63DD70
:104D70002EDD62DD38DD61DD42DD60DD4FDD5DDDD4
:104D80005DDD59DD6ADD52DD7BDD4ADD8DDD41DD36
:104D90009FDD38DDB2DD2EDDC5DD25DDD6DD1FDD95
:104DA000E3DD1DDDEBDD23DDEDDD31DDE2DD4BDDC2
:104DB000CADD79DD96DDC8DD33DD62DE4EDC0CE078
:104DC00085D8772BFF7F2766D4782C690373D36847
:104DD000A26E7367B26A8665EC663C633563A46055
:104DE000835FC35DCE5BA25A145844575054A853F6
:104DF0007150EE4FAE4C1D4CF14842483D455F446A
:104E00008D417A40DE3D943C303AB0387F36CE3426
:104E1000CA32F230102F192D512B46298E277725B3
:104E2000C723AC21FD1FE21D311C1C1A6418561645
:104E300095148F12C810C90EFB0C020B2E093907EE
:104E4000640572039701A8FFCEFDDFFB03FA16F895
:104E50003AF64EF46CF286F09FEEBEECD2EAFAE837
:104E600003E736E532E374E15FDFB1DD8DDBF0D9D6
:104E7000BBD72DD6EBD369D21DD0A0CE53CCD4CA8C
:104E800090C801C7D2C426C31BC144BF6DBD5CBB63
:104E9000C7B96AB727B673B38CB278AFF4AE7BAB41
:104EA0005CAB80A7C1A78CA31DA4A29F6CA0C89BCC
:104EB000A69C0798C2986A94B29409915890C98D9B
:104EC0006F90682F9E5C574A1453B848AD4DB34558
:104ED000E94859425844DC3EDE3F4D3B753BB03714
:104EE00018370634C9324D30892E862C572AB128FE
:104EF0003526CC242022DA201A1EDA1C201ACC18DF
:104F00003116B7144C1299106D0E760C900A520897
:104F1000B6062E04D9020D00F5FEF5FB0AFBE9F7F3
:104F200012F7E8F30AF3F8EFEFEE1FECBBEA63E8E1
:104F300065E6CFE4DBE182E1EBDCD7DED7D6BADE93
:104F400006C78A038F32AB1F0D28A61E4222E41B20
:104F5000531DA218B618281541148D11EA0FDA0D49
:104F6000A60B130A75073D065303580241FF64FE62
:104F70003BFB64FA42F757F655F33FF273EF1CEE32
:104F80009AEBF1E9C8E7BEE5FFE385E139E04BDDE7
:104F900073DC13D9AAD8DDD4DAD4B2D0FFD096CC42
:104FA00012CD8DC80EC9A0C4EBC4D8C09CC040BDF2
:104FB00014BCF1B92FB71DB79BB15AB522AAB0B72F
:104FC000BE944459FF7F3E6C9470CD617461C655A8
:104FD00011535B49E844CE3CD5363430C4289C2379
:104FE000AB1A1617700CC20A77FED31A0631EC5CA6
:104FF00007529BFA6402E7FE63001100A3FF9200D0
:105000004AFFD00021FFE70017FFE70020FFD6008E
:1050100037FFBC0056FF9A0077FF77009AFF5500D4
:10502000BBFF3500D9FF1900F2FF04000600F2FFB4
:105030001400E6FF1E00DFFF2200DDFF2400DCFF7E
:105040002200E0FF1E00E4FF1900EAFF1300F0FF5A
:105050000E00F6FF0800FBFF0300FDFF000001004B
:10506000FFFF0300FDFF0300FDFF0300FCFF030043
:10507000FCFF0300FDFF0300FEFF0100FEFF020036
:10508000FFFF0100FFFF0100FFFF00000000000024
:10509000000000000000000000000100FFFF000011
:1050A000FFFF0000FFFF0200FDFF0300FDFF040003
:1050B000FBFF0600FAFF0600FAFF0600F9FF0600F4
:1050C000FBFF0400FEFF02000000FEFF0300F9FFEB
:1050D0000A00F4FF1000EDFF1600E6FF1D00DFFFE1
:1050E0002300DBFF2700D8FF2800D8FF2500DDFFC5
:1050F0002000E6FF1300F6FF01000A00EAFF22008D
:10510000CDFF4200ADFF64008AFF890063FFB0005D
:105110003EFFD4001BFFF500FCFE1101E3FE27015A
:10512000D2FE3501C6FE4001ADFEAF010EFB268F5B
:105130000F85A292C893DE9E07A19EAB35AEB9B88B
:1051400057BBEBC560C835D34ED5A1E00AE24FEEA0
:105150005BEEE1FC7DF6F6DF42A878B9030836FC89
:105160002402BCFEB600AAFF0E002700B0FF7000AC
:1051700079FF99005AFFAD004FFFAF0056FFA20024
:105180006AFF8A0087FF6600AFFF3A00DDFF0A0072
:105190000F00D7FF4400A3FF760071FFA50046FF74
:1051A000CC0023FFE80010FFF5000EFFEB0024FF0A
:1051B000C30062FF6B00DCFFBFFFD6003CFE800334
:0251C0002DF8C8
:00000001FF
